:020000040800F2
:1000000000280020BD1400084D14000853140008F7
:10001000591400085F14000865140008000000006F
:100020000000000000000000000000006B14000849
:100030007714000800000000831400088F140008E3
:100040000515000805150008051500080515000828
:100050000515000805150008051500080515000818
:100060000515000805150008051500080515000808
:1000700005150008051500080515000805150008F8
:1000800005150008051500080515000805150008E8
:1000900005150008051500080515000805150008D8
:1000A00005150008051500080515000805150008C8
:1000B0009D14000805150008000000000515000843
:1000C00005150008000000000000000005150008EC
:1000D00000000000051500080515000800000000DC
:1000E00005150008051500080515000800000000AA
:1000F0000000000000000000000000000000000000
:0C01000000000000000000005FF808F1A3
:10010C0010B5054C237833B9044B13B10448AFF345
:10011C0000800123237010BD4C0000200000000063
:10012C002C2B000808B5034B1BB103490348AFF354
:10013C00008008BD00000000500000202C2B00089F
:10014C0080B483B000AF7860034A7B68136000BF53
:10015C000C37BD4680BC70470000002080B483B0D3
:10016C0000AF7860034A7B68136000BF0C37BD4654
:10017C0080BC70470800002080B483B000AF78606A
:10018C00034A7B68136000BF0C37BD4680BC7047C8
:10019C000400002080B400AF0D4B1B680D4A1360A7
:1001AC000B4B1B680C4A13600C4B1B680C4A1360FE
:1001BC000A4B1B680B4A13600B4B1B680B4A1360F2
:1001CC00094B1B680A4A136000BFBD4680BC7047D0
:1001DC00000000200C000020180000200800002067
:1001EC00100000202000002004000020140000203B
:1001FC001C00002080B400AF024B1B681846BD46A3
:10020C0080BC70470000002080B400AF024B1B681C
:10021C001846BD4680BC70470800002080B400AF73
:10022C00024B1B681846BD4680BC7047040000207A
:10023C0080B582B000AF78607B68022B29D07B68D8
:10024C00022B36DC7B68002B03D07B68012B10D093
:10025C002FE000220221194801F051FC0122042157
:10026C00164801F04CFC01220821144801F047FC0F
:10027C0020E001220221114801F041FC002204215E
:10028C000E4801F03CFC012208210C4801F037FC1F
:10029C0010E001220221094801F031FC0122042165
:1002AC00064801F02CFC00220821044801F027FC30
:1002BC0000E000BF00BF0837BD4680BD000801400C
:1002CC0080B582B000AF78607B68022B29D07B6848
:1002DC00022B36DC7B68002B03D07B68012B10D003
:1002EC002FE000221021194801F009FC01222021E5
:1002FC00164801F004FC01224021144801F0FFFBD8
:10030C0020E001221021114801F0F9FB00222021EC
:10031C000E4801F0F4FB012240210C4801F0EFFBE8
:10032C0010E001221021094801F0E9FB01222021F3
:10033C00064801F0E4FB00224021044801F0DFFBF9
:10034C0000E000BF00BF0837BD4680BD000801407B
:10035C0080B582B000AF78607B68092B00F2FA811F
:10036C0001A252F823F000BF9D030008FD03000812
:10037C005D040008BD0400081D0500087D0500088B
:10038C00DD0500083D060008A1060008010700086D
:10039C0000228021BE4801F0B2FB00224FF4807194
:1003AC00BB4801F0ACFB00224FF40071B84801F0DF
:1003BC00A6FB00224FF48061B54801F0A0FB00229F
:1003CC004FF40061B24801F09AFB00224FF48051C7
:1003DC00AF4801F094FB01224FF40051AC4801F0FE
:1003EC008EFB00224FF48041A94801F088FBE1E12B
:1003FC0001228021A64801F082FB00224FF480717B
:10040C00A34801F07CFB00224FF40071A04801F0DE
:10041C0076FB01224FF480619D4801F070FB0122B4
:10042C004FF400619A4801F06AFB01224FF48051AD
:10043C00974801F064FB01224FF40051944801F0FD
:10044C005EFB00224FF48041914801F058FBB1E172
:10045C00002280218E4801F052FB00224FF4807163
:10046C008B4801F04CFB01224FF40071884801F0DD
:10047C0046FB00224FF48061854801F040FB0022CE
:10048C004FF40061824801F03AFB01224FF4805195
:10049C007F4801F034FB00224FF400517C4801F0FE
:1004AC002EFB00224FF48041794801F028FB81E1BA
:1004BC0000228021764801F022FB00224FF480714B
:1004CC00734801F01CFB00224FF40071704801F0DE
:1004DC0016FB00224FF480616D4801F010FB0122E5
:1004EC004FF400616A4801F00AFB01224FF480517D
:1004FC00674801F004FB00224FF40051644801F0FE
:10050C00FEFA00224FF48041614801F0F8FA51E103
:10051C00012280215E4801F0F2FA00224FF4807132
:10052C005B4801F0ECFA00224FF40071584801F0DE
:10053C00E6FA01224FF48061554801F0E0FA0122FD
:10054C004FF40061524801F0DAFA00224FF4805166
:10055C004F4801F0D4FA00224FF400514C4801F0FE
:10056C00CEFA00224FF48041494801F0C8FA21E14B
:10057C0000228021464801F0C2FA01224FF480711A
:10058C00434801F0BCFA00224FF40071404801F0DE
:10059C00B6FA00224FF480613D4801F0B0FA012216
:1005AC004FF400613A4801F0AAFA00224FF480514E
:1005BC00374801F0A4FA00224FF40051344801F0FE
:1005CC009EFA00224FF48041314801F098FAF1E094
:1005DC00002280212E4801F092FA01224FF4807102
:1005EC002B4801F08CFA00224FF40071284801F0DE
:1005FC0086FA00224FF48061254801F080FA00222F
:10060C004FF40061224801F07AFA00224FF4805135
:10061C001F4801F074FA00224FF400511C4801F0FD
:10062C006EFA00224FF48041194801F068FAC1E0DB
:10063C0000228021164801F062FA00224FF48071EA
:10064C00134801F05CFA00224FF40071104801F0DD
:10065C0056FA01224FF480610D4801F050FA012244
:10066C004FF400610A4801F04AFA01224FF480511C
:10067C00074801F044FA01224FF40051044801F0FC
:10068C003EFA00224FF48041014801F038FA91E023
:10069C000008014000228021484801F030FA002275
:1006AC004FF48071454801F02AFA00224FF4007192
:1006BC00424801F024FA00224FF480613F4801F0D7
:1006CC001EFA00224FF400613C4801F018FA002297
:1006DC004FF48051394801F012FA00224FF40051C6
:1006EC00364801F00CFA00224FF48041334801F0F7
:1006FC0006FA5FE000228021304801F000FA002267
:10070C004FF480712D4801F0FAF900224FF400717A
:10071C002A4801F0F4F900224FF48061274801F0D7
:10072C00EEF901224FF40061244801F0E8F90022AF
:10073C004FF48051214801F0E2F900224FF40051AE
:10074C001E4801F0DCF900224FF480411B4801F0F7
:10075C00D6F92FE001228021184801F0D0F90122AE
:10076C004FF48071154801F0CAF901224FF4007161
:10077C00124801F0C4F901224FF480610F4801F0D6
:10078C00BEF901224FF400610C4801F0B8F90122C6
:10079C004FF48051094801F0B2F901224FF4005195
:1007AC00064801F0ACF901224FF48041034801F0F6
:1007BC00A6F900BF00BF0837BD4680BD0008014048
:1007CC0080B500AF00220821184801F098F90022EA
:1007DC001021164801F093F900222021134801F052
:1007EC008EF900224021114801F089F901220221E1
:1007FC000F4801F084F9012204210D4801F07FF922
:10080C00012208210A4801F07AF901221021084836
:10081C0001F075F901222021054801F070F901223F
:10082C004021034801F06BF900BF80BD000C014072
:10083C000008014080B500AF002280210B4801F078
:10084C005EF900224FF48071084801F058F900223B
:10085C004FF40071054801F052F900224FF4806109
:10086C00024801F04CF900BF80BD00BF000C0140F4
:10087C0080B500AF194B1B68002B0CDB174B1B68AA
:10088C00174A1360154B1B68013B144A1360002078
:10089C00FFF716FD20E0134B1B68002B0CDB114BF4
:1008AC001B680F4A13600F4B1B68013B0D4A13600A
:1008BC000220FFF705FD0FE00B4B1B68002B0BDB39
:1008CC00094B1B68064A1360074B1B68013B064A21
:1008DC0013600120FFF7F4FC00BF80BD180000205E
:1008EC00240000201C0000202000002080B582B0D5
:1008FC0000AF78603960404B1B68092B0FDD01227B
:10090C0080213E4801F0FBF83B683D4A82FB031214
:10091C009210DB17D31A1846FFF71AFD62E0364B1C
:10092C001B68062B1ADD00228021344801F0E7F801
:10093C0001224FF48071314801F0E1F83A68304BF4
:10094C0083FB02139910D317C91A0B469B000B4457
:10095C005B00D11A0846FFF7FBFC43E0264B1B68F3
:10096C00032B16DD00224FF48071244801F0C7F8E8
:10097C0001224FF40071214801F0C1F87B68204A34
:10098C0082FB03129210DB17D31A1846FFF7E0FC18
:10099C0028E0194B1B68002B1BDD00224FF4007163
:1009AC00164801F0ACF801224FF48061134801F0B5
:1009BC00A6F87A68124B83FB02139910D317C91A45
:1009CC000B469B000B445B00D11A0846FFF7C0FC9A
:1009DC0008E0094B0C221A6000224FF48061074892
:1009EC0001F08DF8044B1B68013B034A136000BFF8
:1009FC000837BD4680BD00BF34000020000C01400C
:100A0C006766666680B582B000AF78607B68042B41
:100A1C0047D07B68042B63DC7B68022B03D07B689C
:100A2C00032B1FD05CE000220221304801F067F854
:100A3C00012204212D4801F062F8012208212B48E3
:100A4C0001F05DF800221021284801F058F801222D
:100A5C002021264801F053F801224021234801F0BF
:100A6C004EF83EE001220221204801F048F8002215
:100A7C0004211E4801F043F8012208211B4801F013
:100A8C003EF801221021194801F039F800222021EA
:100A9C00164801F034F801224021144801F02FF8D7
:100AAC001FE001220221114801F029F80122042142
:100ABC000E4801F024F8002208210C4801F01FF820
:100ACC0001221021094801F01AF8012220210748BF
:100ADC0001F015F800224021044801F010F800E064
:100AEC0000BF00BF0837BD4680BD00BF00080140F5
:100AFC0080B500AF2F4B1B68002B53DC2E4B1B68B3
:100B0C00002B0EDBFFF7B4FE2B4B1B682B4A13603C
:100B1C00294B1B68013B284A13600220FFF788FB16
:100B2C003DE0274B1B68002B0EDBFFF7A1FE244B8F
:100B3C001B68224A1360224B1B68013B204A13603E
:100B4C000120FFF775FB2AE01E4B1B68002B0EDB08
:100B5C00FFF78EFE1B4B1B68184A1360194B1B6862
:100B6C00013B184A13600020FFF762FB17E0164B9D
:100B7C001B68114A1360154B1B68124A1360144B07
:100B8C001B680F4A1360104B1B68124A13600F4B03
:100B9C001B68114A13600E4B1B68104A1360054BFF
:100BAC00FA221A60034B1B68013B024A136000BF18
:100BBC0080BD00BF2C000020140000202800002065
:100BCC00100000200C000020040000200000002079
:100BDC00080000201C00002018000020200000202D
:100BEC0080B500AFFFF784FF504B1B680F2B08DD5F
:100BFC00012280214E4800F082FF0020FFF7A8FB65
:100C0C008DE04A4B1B680C2B0EDD002280214848DE
:100C1C0000F075FF01224FF48071454800F06FFF22
:100C2C000120FFF795FB7AE0404B1B68092B16DD82
:100C3C0000224FF480713E4800F061FF0122082130
:100C4C003B4800F05CFF3B4B1B683B4A82FB0312AA
:100C5C009210DB17D31A1846FFF77AFB5FE0334B81
:100C6C001B68062B1ADD00220821314800F047FFD3
:100C7C00012210212E4800F042FF2E4B1A682E4BF9
:100C8C0083FB02139910D317C91A0B469B000B4414
:100C9C005B00D11A0846FFF75BFB40E0234B1B6857
:100CAC00032B15DD00221021214800F028FF012222
:100CBC0020211F4800F023FF204B1B681E4A82FB9B
:100CCC0003129210DB17D31A1846FFF741FB26E0EC
:100CDC00164B1B68002B1ADD00222021144800F053
:100CEC000EFF01224021124800F009FF134B1A6835
:100CFC00114B83FB02139910D317C91A0B469B0097
:100D0C000B445B00D11A0846FFF722FB07E00022D8
:100D1C004021074800F0F3FE044B12221A60034BEB
:100D2C001B68013B014A136000BF80BD30000020EE
:100D3C00000C014028000020676666662400002035
:100D4C0080B500AF5B4B1B78032B00F2B08001A287
:100D5C0052F823F0710D0008AB0D0008030E0008CB
:100D6C005B0E000800F0ACF90346002B14D0FFF723
:100D7C0041FA0346504A1360FFF750FA03464F4AB4
:100D8C001360FFF741FA03464D4A1360FFF718FD55
:100D9C00484B01221A708BE0FFF722FF88E000F02D
:100DAC008FF90346002B03D0424B02221A707FE0CE
:100DBC0000F07CF90346002B02D000F0CBF811E0D8
:100DCC0000F09CF90346002B02D000F07BF809E000
:100DDC0000F0B4F90346002B04D0374B1B681846BF
:100DEC00FFF7AEF9344B1B6802211846FFF77EFD66
:100DFC0000F0C4F85CE000F063F90346002B03D06C
:100E0C002C4B03221A7053E000F050F90346002BD0
:100E1C0002D000F09FF811E000F070F90346002BAF
:100E2C0002D000F04FF809E000F088F90346002BDF
:100E3C0004D0234B1B681846FFF790F9204B1B6816
:100E4C0003211846FFF752FD00F098F830E000F04F
:100E5C0037F90346002B07D0FFF79CF9FFF7EAFCA4
:100E6C00144B00221A7023E000F020F90346002BEB
:100E7C0002D000F06FF811E000F040F90346002BAF
:100E8C0002D000F01FF809E000F058F90346002BDF
:100E9C0004D00A4B1B681846FFF76EF9074B1B680A
:100EAC0004211846FFF722FD00F068F800E000BFAF
:100EBC0000BF80BD680000206C0000207000002086
:100ECC007400002080B400AF1E4B1B78032B20D085
:100EDC00032B2BDC012B02D0022B0DD026E01A4B5E
:100EEC001B680133184A1360174B1B68622B1FDDFC
:100EFC00154B00221A601BE0144B1B680133134A7C
:100F0C001360124B1B68622B14DD104B00221A600D
:100F1C0010E00F4B1B6801330D4A13600C4B1B6820
:100F2C00622B09DD0A4B00221A6005E000BF04E0C9
:100F3C0000BF02E000BF00E000BF00BFBD4680BCA8
:100F4C00704700BF680000206C0000207400002077
:100F5C007000002080B500AF074B1B68002B04DC31
:100F6C00FFF7B0FF044B64221A60034B1B68013B74
:100F7C00014A136000BF80BD3800002080B500AF6F
:100F8C00124B1B68002B1ADC114B1B78032B0ED059
:100F9C00032B10DC012B02D0022B04D00BE002201F
:100FAC00FFF730FD08E00320FFF72CFD04E00420E0
:100FBC00FFF728FD00E000BF044BFA221A60034B38
:100FCC001B68013B014A136000BF80BD3C00002040
:100FDC006800002080B582B000AF00237B6050E039
:100FEC002C4A7B68134419782B4A7B6813440A46B5
:100FFC001A700221294800F06BFD03461946254A58
:10100C007B6813440A461A70224A7B6813441A7888
:10101C0021497B680B441B789A4208D11D4A7B6896
:10102C00134419781E4A7B6813440A461A701C4AEA
:10103C007B6813441B78002B16D11A4A7B6832F854
:10104C001330FD2B0AD8174A7B6832F81330013362
:10105C0099B2144A7B6822F813100FE0124A7B688D
:10106C00134401221A7009E00E4A7B68002122F811
:10107C0013100D4A7B68134400221A707B680133ED
:10108C007B607B68002BABDD00BF00BF0837BD4623
:10109C0080BD00BF7C00002080000020000C0140BF
:1010AC0078000020880000208400002080B400AF6D
:1010BC00024B1B781846BD4680BC7047840000204C
:1010CC0080B500AF01210B4800F002FD0346002B58
:1010DC0004D1094B01221A60002309E0064B1B685E
:1010EC00012B04D1044B00221A60012300E00023E1
:1010FC00184680BD000C01408C00002080B500AF6C
:10110C0002210B4800F0E4FC0346012B04D1094BEF
:10111C0001221A60002309E0074B1B68012B04D144
:10112C00044B00221A60012300E00023184680BD06
:10113C00000C0140940000208C00002080B500AF12
:10114C0004210B4800F0C4FC0346002B04D1094BCE
:10115C0001221A60002309E0074B1B68012B04D104
:10116C00044B00221A60012300E00023184680BDC6
:10117C00000C0140900000208C00002080B500AFD6
:10118C0000F0BCF900F00AF800F090F800F042F81A
:10119C00014801F005F9FEE79800002080B590B0F9
:1011AC0000AF07F1180328220021184601F0B0FC0B
:1011BC003B1D00221A605A609A60DA601A610223A1
:1011CC00BB610123BB621023FB6200237B6307F12D
:1011DC001803184600F0ACFC0346002B01D000F0BD
:1011EC00D3F80F237B600023BB600023FB6000233C
:1011FC003B6100237B613B1D0021184600F018FF6A
:10120C000346002B01D000F0BFF800BF4037BD46AD
:10121C0080BD000080B586B000AF07F10803002246
:10122C001A605A609A60DA603B4600221A605A6073
:10123C001D4B4FF080421A601B4B41F63F725A60B7
:10124C00194B00229A60184B0122DA60164B0022CF
:10125C001A61154B00229A61134801F051F80346AC
:10126C00002B01D000F090F84FF48053BB6007F1D5
:10127C00080319460C4801F0E7F90346002B01D08E
:10128C0000F082F800233B6000237B603B4619464C
:10129C00054801F0AFFB0346002B01D000F074F8B9
:1012AC0000BF1837BD4680BD9800002080B586B0C1
:1012BC0000AF07F1080300221A605A609A60DA60E6
:1012CC00284B9B69274A43F004039361254B9B6988
:1012DC0003F004037B607B68224B9B69214A43F03B
:1012EC00080393611F4B9B6903F008033B603B6849
:1012FC00002247F6FE711C4800F001FC00224FF45E
:10130C00FF611A4800F0FBFB47F6FE73BB6001233C
:10131C00FB6000233B6102237B6107F10803194644
:10132C00114800F05BFA0723BB600023FB6001232C
:10133C003B6107F1080319460C4800F04FFA4FF4D3
:10134C00FF63BB600123FB6000233B6102237B61D5
:10135C0007F108031946054800F040FA00BF18379A
:10136C00BD4680BD0010024000080140000C014049
:10137C0080B582B000AF7860FFF72CFEFFF7E0FC81
:10138C0000BF0837BD4680BD80B400AF72B600BF49
:10139C00FEE7000080B485B000AF154B9B69144A82
:1013AC0043F001039361124B9B6903F00103BB6093
:1013BC00BB680F4BDB690E4A43F08053D3610C4B77
:1013CC00DB6903F080537B607B680A4B5B68FB60D6
:1013DC00FB6823F0E063FB60FB6843F08063FB6019
:1013EC00044AFB68536000BF1437BD4680BC70478D
:1013FC00001002400000014080B584B000AF78605E
:10140C007B681B68B3F1804F13D10C4BDB690B4A23
:10141C0043F00103D361094BDB6903F00103FB606B
:10142C00FB68002200211C2000F0A1F91C2000F018
:10143C00BAF900BF1037BD4680BD00BF0010024096
:10144C0080B400AFFEE780B400AFFEE780B400AF1D
:10145C00FEE780B400AFFEE780B400AFFEE780B4D7
:10146C0000AF00BFBD4680BC704780B400AF00BF6A
:10147C00BD4680BC704780B400AF00BFBD4680BC89
:10148C00704780B500AF00F07FF800BF80BD000052
:10149C0080B500AF024800F0CFFF00BF80BD00BF99
:1014AC009800002080B400AF00BFBD4680BC7047E0
:1014BC000C480D490D4A002302E0D458C4500433A3
:1014CC00C4188C42F9D30A4A0A4C002301E0136079
:1014DC000432A242FBD3FFF7E5FF01F0F5FAFFF768
:1014EC004DFE7047000000204C0000206C2B0008C3
:1014FC004C000020E4000020FEE7000080B500AFA7
:10150C00084B1B68074A43F010031360032000F0DC
:10151C0023F90F2000F008F8FFF73CFF00231846D2
:10152C0080BD00BF0020024080B582B000AF786063
:10153C00124B1A68124B1B7819464FF47A73B3FB93
:10154C00F1F3B2FBF3F3184600F03BF90346002B22
:10155C0001D001230EE07B680F2B0AD8002279689A
:10156C004FF0FF3000F003F9064A7B68136000234C
:10157C0000E0012318460837BD4680BD400000201E
:10158C00480000204400002080B400AF054B1B78BD
:10159C001A46054B1B681344034A136000BFBD4633
:1015AC0080BC704748000020E000002080B400AFF1
:1015BC00024B1B681846BD4680BC7047E0000020FB
:1015CC0080B485B000AF78607B6803F00703FB60E4
:1015DC000C4BDB68BB60BA684FF6FF031340BB6073
:1015EC00FB681A02BB68134343F0BF6343F4003338
:1015FC00BB60044ABB68D36000BF1437BD4680BCD7
:10160C00704700BF00ED00E080B400AF044BDB6816
:10161C001B0A03F007031846BD4680BC704700BF89
:10162C0000ED00E080B483B000AF0346FB7197F986
:10163C000730002B0BDBFB7903F01F02064997F9EF
:10164C0007305B09012000FA02F241F8232000BFA9
:10165C000C37BD4680BC704700E100E080B483B01D
:10166C0000AF03463960FB7197F90730002B0ADB9A
:10167C003B68DAB20C4997F907301201D2B20B442D
:10168C0083F800230AE03B68DAB20849FB7903F0DF
:10169C000F03043B1201D2B20B441A7600BF0C3775
:1016AC00BD4680BC704700BF00E100E000ED00E0EB
:1016BC0080B489B000AFF860B9607A60FB6803F061
:1016CC000703FB61FB69C3F10703042B28BF042349
:1016DC00BB61FB690433062B02D9FB69033B00E0B9
:1016EC0000237B614FF0FF32BB6902FA03F3DA434C
:1016FC00BB681A407B699A404FF0FF317B6901FA55
:10170C0003F3D9437B680B40134318462437BD467B
:10171C0080BC704780B582B000AF78607B68013BBD
:10172C00B3F1807F01D301230FE00A4A7B68013BB0
:10173C0053600F214FF0FF30FFF790FF054B002255
:10174C009A60044B07221A60002318460837BD46DE
:10175C0080BD00BF10E000E080B582B000AF7860C3
:10176C007868FFF72DFF00BF0837BD4680BD80B5F8
:10177C0086B000AF0346B9607A60FB7300237B61CF
:10178C00FFF742FF78617A68B9687869FFF790FFD4
:10179C00024697F90F3011461846FFF75FFF00BF5E
:1017AC001837BD4680BD80B582B000AF0346FB71D3
:1017BC0097F907301846FFF735FF00BF0837BD46CD
:1017CC0080BD80B582B000AF78607868FFF7A2FF6B
:1017DC00034618460837BD4680BD000080B48BB068
:1017EC0000AF7860396000237B6200233B6248E1E4
:1017FC0001227B6A02FA03F3FB613B681B68FA69FE
:10180C001340BB61BA69FB699A4240F037813B686F
:10181C005B68A34A93425ED0A14A934275D8A14A11
:10182C00934258D09F4A93426FD89F4A934252D0CA
:10183C009D4A934269D89D4A93424CD09B4A93420D
:10184C0063D89B4A934246D0994A93425DD8122B57
:10185C002AD8122B59D801A252F823F0E318000809
:10186C00BD180008CF180008111900081719000836
:10187C00171900081719000817190008171900087C
:10188C00171900081719000817190008171900086C
:10189C00171900081719000817190008171900085C
:1018AC00C5180008D9180008824A934213D02CE0BE
:1018BC003B68DB683B6229E03B68DB6804333B62D6
:1018CC0024E03B68DB6808333B621FE03B68DB6865
:1018DC000C333B621AE03B689B68002B02D104235B
:1018EC003B6213E03B689B68012B05D108233B62EC
:1018FC007B68FA691A6109E008233B627B68FA6924
:10190C005A6103E000233B6200E000BFBB69FF2B80
:10191C0001D87B6801E07B6804337B61BB69FF2BDA
:10192C0002D87B6A9B0002E07B6A083B9B003B6110
:10193C007B691A680F213B6901FA03F3DB431A40F8
:10194C00396A3B6901FA03F31A437B691A603B68F5
:10195C005B6803F08053002B00F09080564B9B6922
:10196C00554A43F001039361534B9B6903F0010308
:10197C00BB60BB68514A7B6A9B08023352F8233028
:10198C00FB607B6A03F003039B000F2202FA03F354
:10199C00DB43FA681340FB607B68494A93420DD0E5
:1019AC007B68484A934207D07B68474A934201D1EF
:1019BC00022304E0032302E0012300E000237A6AFF
:1019CC0002F0030292009340FA681343FB603B4918
:1019DC007B6A9B080233FA6841F823203B685B68FA
:1019EC0003F48033002B06D0384B1A683749BB6997
:1019FC0013430B6006E0354B1A68BB69DB43334974
:101A0C0013400B603B685B6803F40033002B06D07B
:101A1C002E4B5A682D49BB6913434B6006E02B4B88
:101A2C005A68BB69DB43294913404B603B685B68D0
:101A3C0003F48013002B06D0244B9A682349BB690E
:101A4C0013438B6006E0214B9A68BB69DB431F494B
:101A5C0013408B603B685B6803F40013002B06D0CB
:101A6C001A4BDA681949BB691343CB6006E0174B74
:101A7C00DA68BB69DB4315491340CB607B6A0133E1
:101A8C007B623B681A687B6A22FA03F3002B7FF4B3
:101A9C00AFAE00BF00BF2C37BD4680BC704700BF47
:101AAC000000321000003110000022100000211044
:101ABC000000121000001110001002400000014044
:101ACC0000080140000C01400010014000040140DE
:101ADC0080B485B000AF78600B467B807B689A68D9
:101AEC007B881340002B02D00123FB7301E0002301
:101AFC00FB73FB7B18461437BD4680BC704780B423
:101B0C0083B000AF78600B467B8013467B707B788C
:101B1C00002B03D07A887B681A6103E07B881A0457
:101B2C007B681A6100BF0C37BD4680BC7047000053
:101B3C0080B586B000AF78607B68002B01D10123A3
:101B4C006CE27B681B6803F00103002B00F08780BC
:101B5C00924B5B6803F00C03042B0CD08F4B5B682F
:101B6C0003F00C03082B12D18C4B5B6803F480330D
:101B7C00B3F5803F0BD1894B1B6803F40033002B6A
:101B8C006CD07B685B68002B68D1012346E27B68D4
:101B9C005B68B3F5803F06D1804B1B687F4A43F4EA
:101BAC00803313602EE07B685B68002B0CD17B4B81
:101BBC001B687A4A23F480331360784B1B68774A8E
:101BCC0023F4802313601DE07B685B68B3F5A02FC2
:101BDC000CD1724B1B68714A43F4802313606F4B1A
:101BEC001B686E4A43F4803313600BE06B4B1B682D
:101BFC006A4A23F480331360684B1B68674A23F4EA
:101C0C00802313607B685B68002B13D0FFF7CEFC3E
:101C1C00386108E0FFF7CAFC02463B69D31A642B13
:101C2C0001D90323FAE15D4B1B6803F40033002B4D
:101C3C00F0D014E0FFF7BAFC386108E0FFF7B6FC0F
:101C4C0002463B69D31A642B01D90323E6E1534BBB
:101C5C001B6803F40033002BF0D100E000BF7B685D
:101C6C001B6803F00203002B63D04C4B5B6803F042
:101C7C000C03002B0BD0494B5B6803F00C03082BB7
:101C8C001CD1464B5B6803F48033002B16D1434BBD
:101C9C001B6803F00203002B05D07B681B69012B2A
:101CAC0001D00123BAE13D4B1B6823F0F8027B689D
:101CBC005B69DB00394913430B603AE07B681B69B5
:101CCC00002B20D0364B01221A60FFF76FFC3861D5
:101CDC0008E0FFF76BFC02463B69D31A022B01D9D3
:101CEC0003239BE12D4B1B6803F00203002BF0D068
:101CFC002A4B1B6823F0F8027B685B69DB002749E1
:101D0C0013430B6015E0264B00221A60FFF74EFCC4
:101D1C00386108E0FFF74AFC02463B69D31A022BF4
:101D2C0001D903237AE11D4B1B6803F00203002B3E
:101D3C00F0D17B681B6803F00803002B3AD07B685A
:101D4C009B69002B19D0174B01221A60FFF72EFC50
:101D5C00386108E0FFF72AFC02463B69D31A022BD4
:101D6C0001D903235AE10D4B5B6A03F00203002BEC
:101D7C00F0D0012000F0A6FA1CE00A4B00221A60F9
:101D8C00FFF714FC38610FE0FFF710FC02463B69CB
:101D9C00D31A022B08D9032340E100BF00100240E4
:101DAC0000004242800442429E4B5B6A03F00203F5
:101DBC00002BE9D17B681B6803F00403002B00F0B7
:101DCC00A6800023FB75974BDB6903F08053002B37
:101DDC000DD1944BDB69934A43F08053D361914B03
:101DEC00DB6903F08053BB60BB680123FB758E4B32
:101DFC001B6803F48073002B18D18B4B1B688A4A29
:101E0C0043F480731360FFF7D1FB386108E0FFF7F0
:101E1C00CDFB02463B69D31A642B01D90323FDE0A9
:101E2C00814B1B6803F48073002BF0D07B68DB685C
:101E3C00012B06D17B4B1B6A7A4A43F001031362D8
:101E4C002DE07B68DB68002B0CD1764B1B6A754A46
:101E5C0023F001031362734B1B6A724A23F00403D1
:101E6C0013621CE07B68DB68052B0CD16D4B1B6A85
:101E7C006C4A43F0040313626A4B1B6A694A43F0D1
:101E8C00010313620BE0674B1B6A664A23F00103E4
:101E9C001362644B1B6A634A23F0040313627B686E
:101EAC00DB68002B15D0FFF781FB38610AE0FFF7E8
:101EBC007DFB02463B69D31A41F28832934201D929
:101ECC000323ABE0574B1B6A03F00203002BEED04D
:101EDC0014E0FFF76BFB38610AE0FFF767FB024683
:101EEC003B69D31A41F28832934201D9032395E01E
:101EFC004C4B1B6A03F00203002BEED1FB7D012B34
:101F0C0005D1484BDB69474A23F08053D3617B688A
:101F1C00DB69002B00F08180424B5B6803F00C0303
:101F2C00082B61D07B68DB69022B46D13F4B00222A
:101F3C001A60FFF73BFB386108E0FFF737FB0246FE
:101F4C003B69D31A022B01D9032367E0354B1B687D
:101F5C0003F00073002BF0D17B681B6AB3F5803F54
:101F6C0008D1304B5B6823F400327B689B682D49A9
:101F7C0013434B602B4B5B6823F474127B68196A18
:101F8C007B685B6A0B43274913434B60274B012249
:101F9C001A60FFF70BFB386108E0FFF707FB0246FE
:101FAC003B69D31A022B01D9032337E01D4B1B6865
:101FBC0003F00073002BF0D02FE01C4B00221A60B2
:101FCC00FFF7F4FA386108E0FFF7F0FA02463B69D4
:101FDC00D31A022B01D9032320E0124B1B6803F008
:101FEC000073002BF0D118E07B68DB69012B01D169
:101FFC00012313E00B4B5B68FB60FB6803F480323E
:10200C007B681B6A9A4206D1FB6803F470127B68EA
:10201C005B6A9A4201D0012300E00023184618376E
:10202C00BD4680BD0010024000700040600042427E
:10203C0080B584B000AF786039607B68002B01D12B
:10204C000123D0E06A4B1B6803F007033A689A42FD
:10205C0010D9674B1B6823F0070265493B68134393
:10206C000B60634B1B6803F007033A689A4201D07C
:10207C000123B8E07B681B6803F00203002B20D01F
:10208C007B681B6803F00403002B05D0594B5B687D
:10209C00584A43F4E06353607B681B6803F0080301
:1020AC00002B05D0534B5B68524A43F4605353608A
:1020BC00504B5B6823F0F0027B689B684D491343DF
:1020CC004B607B681B6803F00103002B40D07B68DE
:1020DC005B68012B07D1474B1B6803F40033002BC3
:1020EC0015D101237FE07B685B68022B07D1414B44
:1020FC001B6803F00073002B09D1012373E03D4BE7
:10210C001B6803F00203002B01D101236BE0394B58
:10211C005B6823F003027B685B68364913434B60B2
:10212C00FFF744FAF8600AE0FFF740FA0246FB6852
:10213C00D31A41F28832934201D9032353E02D4B39
:10214C005B6803F00C027B685B689B009A42EBD1E6
:10215C00274B1B6803F007033A689A4210D2244BB2
:10216C001B6823F0070222493B6813430B60204B8A
:10217C001B6803F007033A689A4201D0012332E04E
:10218C007B681B6803F00403002B08D0194B5B68B9
:10219C0023F4E0627B68DB68164913434B607B6871
:1021AC001B6803F00803002B09D0124B5B6823F467
:1021BC0060527B681B69DB000E4913434B6000F0D7
:1021CC0021F802460B4B5B681B0903F00F030A490D
:1021DC00CB5C22FA03F3094A1360094B1B681846BF
:1021EC00FFF7A2F9002318461037BD4680BD00BF8B
:1021FC000020024000100240542B00084000002038
:10220C004400002090B48AB000AF2A4B3C1D0FCB89
:10221C0084E80F0040F201233B800023FB61002384
:10222C00BB6100237B6200237B6100233B62224B5A
:10223C005B68FB61FB6903F00C03042B02D0082BD9
:10224C0003D02DE01D4B3B622DE0FB699B0C03F092
:10225C000F0307F12802134413F8243C7B61FB693C
:10226C0003F48033002B13D0134B5B685B0C03F02F
:10227C00010307F12802134413F8283CBB617B6966
:10228C000E4A02FB03F2BB69B2FBF3F37B6204E080
:10229C007B690B4A02FB03F37B627B6A3B6202E0C5
:1022AC00064B3B6200BF3B6A18462837BD4690BCC4
:1022BC00704700BF442B00080010024000127A0047
:1022CC0000093D0080B485B000AF78600A4B1B68F4
:1022DC000A4AA2FB03235B0A7A6802FB03F3FB6046
:1022EC0000BFFB685A1EFA60002BF9D100BF00BF7B
:1022FC001437BD4680BC704740000020D34D62109F
:10230C0080B582B000AF78607B68002B01D10123CF
:10231C0041E07B6893F83D30DBB2002B06D17B6843
:10232C00002283F83C207868FFF766F87B6802226D
:10233C0083F83D207B681A687B6804331946104685
:10234C0000F06AFA7B68012283F846207B68012240
:10235C0083F83E207B68012283F83F207B680122B2
:10236C0083F840207B68012283F841207B6801229E
:10237C0083F842207B68012283F843207B6801228A
:10238C0083F844207B68012283F845207B68012276
:10239C0083F83D20002318460837BD4680BD000059
:1023AC0080B485B000AF78607B6893F83D30DBB2C9
:1023BC00012B01D0012335E07B68022283F83D20FC
:1023CC007B681B68DA687B681B6842F00102DA6084
:1023DC007B681B68164A934209D07B681B68B3F173
:1023EC00804F04D07B681B68124A934211D17B68E2
:1023FC001B689B6803F00703FB60FB68062B10D07F
:10240C007B681B681A687B681B6842F001021A60C3
:10241C0007E07B681B681A687B681B6842F0010246
:10242C001A60002318461437BD4680BC704700BFA5
:10243C00002C01400004004080B582B000AF7860F1
:10244C007B681B681B6903F00203022B22D17B689B
:10245C001B68DB6803F00203022B1BD17B681B6833
:10246C006FF002021A617B6801221A777B681B6885
:10247C009B6903F00303002B03D0786800F0B1F9DB
:10248C0005E0786800F0A4F9786800F0B3F97B688F
:10249C0000221A777B681B681B6903F00403042B6A
:1024AC0022D17B681B68DB6803F00403042B1BD16F
:1024BC007B681B686FF004021A617B6802221A7732
:1024CC007B681B689B6903F44073002B03D078680E
:1024DC0000F087F905E0786800F07AF9786800F088
:1024EC0089F97B6800221A777B681B681B6903F0EB
:1024FC000803082B22D17B681B68DB6803F00803F8
:10250C00082B1BD17B681B686FF008021A617B6873
:10251C0004221A777B681B68DB6903F00303002B2A
:10252C0003D0786800F05DF905E0786800F050F9A8
:10253C00786800F05FF97B6800221A777B681B686B
:10254C001B6903F01003102B22D17B681B68DB681E
:10255C0003F01003102B1BD17B681B686FF010026B
:10256C001A617B6808221A777B681B68DB6903F4A5
:10257C004073002B03D0786800F033F905E07868DD
:10258C0000F026F9786800F035F97B6800221A779C
:10259C007B681B681B6903F00103012B0ED17B6860
:1025AC001B68DB6803F00103012B07D17B681B68F8
:1025BC006FF001021A617868FEF7DAFE7B681B681F
:1025CC001B6903F08003802B0ED17B681B68DB68D2
:1025DC0003F08003802B07D17B681B686FF08002AF
:1025EC001A61786800F067FA7B681B681B6903F056
:1025FC004003402B0ED17B681B68DB6803F0400363
:10260C00402B07D17B681B686FF040021A61786819
:10261C0000F0F9F87B681B681B6903F02003202B82
:10262C000ED17B681B68DB6803F02003202B07D1DD
:10263C007B681B686FF020021A61786800F032FA30
:10264C0000BF0837BD4680BD80B584B000AF786050
:10265C0039607B6893F83C30012B01D10223B3E045
:10266C007B68012283F83C207B68022283F83D20A2
:10267C007B681B689B68FB60FB6823F07703FB603F
:10268C00FB6823F47F43FB607B681B68FA689A60E5
:10269C003B681B68B3F5005F3ED0B3F5005F00F2FA
:1026AC008780B3F5805F00F08580B3F5805F7FD8BD
:1026BC00702B1AD0702B7BD8602B50D0602B77D816
:1026CC00502B3CD0502B73D8402B58D0402B6FD86C
:1026DC00302B64D0302B6BD8202B60D0202B67D8BC
:1026EC00002B5CD0102B5AD062E07B6818683B68DA
:1026FC0099683B685A683B68DB6800F05CF97B685A
:10270C001B689B68FB60FB6843F07703FB607B688E
:10271C001B68FA689A604EE07B6818683B68996899
:10272C003B685A683B68DB6800F045F97B681B68BE
:10273C009A687B681B6842F480429A603BE07B6835
:10274C0018683B6859683B68DB681A4600F0BCF8AF
:10275C007B681B685021184600F013F92BE07B684E
:10276C0018683B6859683B68DB681A4600F0DAF871
:10277C007B681B686021184600F003F91BE07B683E
:10278C0018683B6859683B68DB681A4600F09CF88F
:10279C007B681B684021184600F0F3F80BE07B685F
:1027AC001A683B681B681946104600F0EAF802E00C
:1027BC0000BF00E000BF7B68012283F83D207B68EE
:1027CC00002283F83C20002318461037BD4680BDFC
:1027DC0080B483B000AF786000BF0C37BD4680BCBE
:1027EC00704780B483B000AF786000BF0C37BD4633
:1027FC0080BC704780B483B000AF786000BF0C37EA
:10280C00BD4680BC704780B483B000AF786000BF19
:10281C000C37BD4680BC704780B485B000AF786083
:10282C0039607B681B68FB607B68254A934207D044
:10283C007B68B3F1804F03D07B68224A934208D166
:10284C00FB6823F07003FB603B685B68FA6813431A
:10285C00FB607B681A4A934207D07B68B3F1804FC8
:10286C0003D07B68174A934208D1FB6823F440736A
:10287C00FB603B68DB68FA681343FB60FB6823F082
:10288C0080023B685B691343FB607B68FA681A60E3
:10289C003B689A687B68DA623B681A687B689A6264
:1028AC007B68074A934203D13B681A697B681A63B9
:1028BC007B6801225A6100BF1437BD4680BC70474B
:1028CC00002C01400004004080B487B000AFF860D9
:1028DC00B9607A60FB681B6A7B61FB681B6A23F03A
:1028EC000102FB681A62FB689B693B613B6923F040
:1028FC00F0033B617B681B013A6913433B617B69C5
:10290C0023F00A037B617A69BB6813437B61FB6824
:10291C003A699A61FB687A691A6200BF1C37BD4636
:10292C0080BC704780B487B000AFF860B9607A6043
:10293C00FB681B6A23F01002FB681A62FB689B6938
:10294C007B61FB681B6A3B617B6923F470437B6191
:10295C007B681B037A6913437B613B6923F0A003FB
:10296C003B61BB681B013A6913433B61FB687A69A5
:10297C009A61FB683A691A6200BF1C37BD4680BC7D
:10298C00704780B485B000AF786039607B689B6815
:10299C00FB60FB6823F07003FB603A68FB68134331
:1029AC0043F00703FB607B68FA689A6000BF14373A
:1029BC00BD4680BC704780B487B000AFF860B9608A
:1029CC007A603B60FB689B687B617B6923F47F4387
:1029DC007B613B681A027B681A43BB6813437A69B4
:1029EC0013437B61FB687A699A6000BF1C37BD4654
:1029FC0080BC704780B485B000AF786039607B686C
:102A0C0093F83C30012B01D1022341E07B68012279
:102A1C0083F83C207B68022283F83D207B681B688E
:102A2C005B68FB607B681B689B68BB60FB6823F082
:102A3C007003FB603B681B68FA681343FB607B68A0
:102A4C001B68FA685A607B681B68144A934209D069
:102A5C007B681B68B3F1804F04D07B681B68104AFD
:102A6C0093420CD1BB6823F08003BB603B685B686E
:102A7C00BA681343BB607B681B68BA689A607B6852
:102A8C00012283F83D207B68002283F83C20002340
:102A9C0018461437BD4680BC704700BF002C01405F
:102AAC000004004080B483B000AF786000BF0C37E6
:102ABC00BD4680BC704780B483B000AF786000BF67
:102ACC000C37BD4680BC704770B500260C4D0D4CC4
:102ADC00641BA410A64209D100F022F800260A4D6E
:102AEC000A4C641BA410A64205D170BD55F8043BDA
:102AFC0098470136EEE755F8043B98470136F2E764
:102B0C00642B0008642B0008642B0008682B000859
:102B1C0003460244934200D1704703F8011BF9E7C6
:102B2C00F8B500BFF8BC08BC9E467047F8B500BFAE
:082B3C00F8BC08BC9E4670477E
:102B440002030405060708090A0B0C0D0E0F1010EA
:102B54000000000000000000010203040607080949
:042B64003101000833
:042B68000D01000853
:102B6C00050000000300000002000000050000004A
:102B7C00030000000200000005000000030000003C
:102B8C00020000000500000003000000FA00000035
:102B9C00120000000C00000064000000FA000000AD
:0C2BAC000024F4001000000001000000F4
:04000005080014BD1E
:00000001FF
